:100000000C942A000C9447000C9447000C94470071
:100010000C9447000C9447000C9447000C94470044
:100020000C9447000C9447000C9447000C94470034
:100030000C9447000C9447000C9447000C94470024
:100040000C94CD000C9447000C9447000C9447008E
:100050000C94470011241FBECFE5D8E0DEBFCDBF12
:1000600010E0A0E6B0E0ECEDF3E002C005900D92E8
:10007000AA38B107D9F710E0AAE8B0E001C01D9294
:10008000AD38B107E1F70E9428010C94EC010C9403
:10009000000086B116B886B116B80895EF92FF92A7
:1000A0000F931F93CF93DF93962FC42FD22FB801B6
:1000B000A70190938C00A7B1E82FF0E09F01217079
:1000C0003070C90100249695879507949695879579
:1000D0000794982F802D8A2BE270F0709F01359540
:1000E0002795F901F695FE2FEE27F795E795E82B72
:1000F000E7B98091640090916500A0916600B0918D
:1001000067008E159F05A007B10788F0E9E6F0E0CB
:1001100021E080819181A281B38184179507A60790
:10012000B70730F02F5F3596273099F701C020E0F0
:1001300086B1887F86B936B1822F90E0FC01EE0F40
:10014000FF1FEE0FFF1F8E0F9F1FFC01EC59FF4F8B
:1001500084818370832B86B987B187B980918C00A5
:10016000813011F4339A7894C111359A87B1DF71D7
:10017000D82BD7B9379A80918C00813009F4369A00
:1001800080B7C295CC0FC07EC82BC0BFDF91CF9186
:100190001F910F91FF90EF9008951F920F920FB64D
:1001A0000F9211242F933F934F938F939F9384B17A
:1001B00090E090938B0080938A0045B120918A0053
:1001C00030918B00942F80E0822B932B90938B00A7
:1001D00080938A00369A9F918F914F913F912F91F2
:1001E0000F900FBE0F901F90189580918C00882360
:1001F000B9F4369A349BFECF84B190E090938B0093
:1002000080938A0045B120918A0030918B00942F11
:1002100080E0822B932B90938B0080938A00349AFA
:1002200080918A0090918B00089580918C008823A2
:1002300051F4369A349BFECF85B190E090938B00B9
:1002400080938A00349A80918A0090918B0008955F
:10025000CF93DF93CDB7DEB72A970FB6F894DEBF02
:100260000FBECDBF8AB31ABA84B38FEF84BB91B3EC
:1002700081BB1A8281E08C831B82198280EC98E614
:10028000A8E7B4E08D839E83AF83B8871A8619866A
:10029000CE0101960E94D801CE0109960E94CE019E
:1002A00099858A8595BB82BBF3CF813089F08130F7
:1002B00028F08230B9F0833041F51EC08AB3942F04
:1002C000909589238ABB8AB36423682B6ABB0895FF
:1002D00087B3942F9095892387BB87B36423682BBA
:1002E00067BB089584B3942F9095892384BB84B30E
:1002F0006423682B64BB089581B3942F9095892360
:1003000081BB81B36423682B61BB0895813089F080
:10031000813028F08230B9F0833041F51EC08BB3B4
:10032000942F909589238BBB8BB36423682B6BBB75
:10033000089588B3942F9095892388BB88B364234C
:10034000682B68BB089585B3942F9095892385BB4E
:1003500085B36423682B65BB089582B3942F909571
:10036000892382BB82B36423682B62BB08958130EA
:1003700051F0813028F0823049F0833069F409C0AF
:1003800089B38623089586B38623089583B386238D
:10039000089580B38623089580E00895CF93DF9376
:1003A000EC010E94F50099838883DF91CF91089535
:1003B000EF92FF920F931F93FC01E480F58006817A
:1003C000178180816381428121810E944E001F91AB
:0C03D0000F91FF90EF900895F894FFCF7C
:1003DC00C068780400093D000080841E0002404281
:1003EC000F000320A107000490D003000548E8018A
:0A03FC00000624F4000007031B00B4
:00000001FF
