S01200004144435F746573745F322E737265639A
S11300000C942A000C9447000C9447000C9447006D
S11300100C9447000C9447000C9447000C94470040
S11300200C9447000C9447000C9447000C94470030
S11300300C9447000C9447000C9447000C94470020
S11300400C94AB000C9447000C9447000C944700AC
S11300500C94470011241FBECFE5D8E0DEBFCDBF0E
S113006010E0A0E6B0E0EAECF2E002C005900D92E8
S1130070A838B107D9F710E0A8E8B0E001C01D9294
S1130080AA38B107E1F70E94DC000C9463010C94D8
S1130090000067B18091870090E0AC01417050701E
S11300A09A01002436952795079436952795079449
S11300B0322F202D462F422B827090709C01359553
S11300C02795C9019695982F882797958795842B0E
S11300D087B9409160005091610060916200709115
S11300E063008091640090916500A0916600B091D6
S11300F0670084179507A607B70788F0E9E6F0E0DC
S113010021E080819181A281B38184179507A6079C
S1130110B70730F02F5F3596273099F701C020E0FC
S113012086B1887F86B936B1822F90E0FC01EE0F4C
S1130130FF1FEE0FFF1F8E0F9F1FFC01EC59FF4F97
S113014084818370832B86B987B187B9339A379AB0
S11301507894369A08951F920F920FB60F92112435
S11301602F933F934F938F939F9384B190E09093F9
S113017089008093880045B12091880030918900DE
S1130180942F80E0822B932B909389008093880096
S1130190369A9F918F914F913F912F910F900FBE5F
S11301A00F901F90189597B18F71982B97B98091E4
S11301B08800909189000895D09884B38FEF84BB10
S11301C091B381BB0E94490080E00E94D30085BBAB
S11301D092BBF8CF813089F0813028F08230B9F0B9
S11301E0833041F51EC08AB3942F909589238ABB2E
S11301F08AB36423682B6ABB089587B3942F9095C0
S1130200892387BB87B36423682B67BB089584B3B2
S1130210942F9095892384BB84B36423682B64BB97
S1130220089581B3942F9095892381BB81B364236E
S1130230682B61BB0895813089F0813028F08230C9
S1130240B9F0833041F51EC08BB3942F9095892368
S11302508BBB8BB36423682B6BBB089588B3942F3B
S11302609095892388BB88B36423682B68BB089561
S113027085B3942F9095892385BB85B36423682B1C
S113028065BB089582B3942F9095892382BB82B372
S11302906423682B62BB0895813051F0813028F0CB
S11302A0823049F0833069F409C089B38623089504
S11302B086B38623089583B38623089580B3862363
S10D02C0089580E00895F894FFCF3C
S11302CAC068780400093D000080841E0002404290
S11302DA0F000320A107000490D003000548E80199
S10B02EA000624F400000700E3
S9030000FC
