S01200004144435F746573745F322E737265639A
S11300000C942A000C9447000C9447000C9447006D
S11300100C9447000C9447000C9447000C94470040
S11300200C9447000C9447000C9447000C94470030
S11300300C9447000C9447000C9447000C94470020
S11300400C94C7000C9447000C9447000C94470090
S11300500C94470011241FBECFE5D8E0DEBFCDBF0E
S113006010E0A0E6B0E0E6EEF2E002C005900D92EA
S1130070A438B107D9F710E0A4E8B0E001C01D929C
S1130080A738B107E1F70E9422010C9471010C9486
S1130090000086B116B886B116B80895EF92FF92A3
S11300A00F931F93CF93DF93962FC42FD22FB801B2
S11300B0A70190938600A7B1E82FF0E09F0121707B
S11300C03070C90100249695879507949695879575
S11300D00794982F802D8A2BE270F0709F0135953C
S11300E02795F901F695FE2FEE27F795E795E82B6E
S11300F0E7B9413281EA580787E0680780E078076A
S113010088F4E5E6F0E021E080819181A281B38169
S113011084179507A607B70730F02F5F3596273069
S113012099F701C020E086B1887F86B936B1822F65
S113013090E0FC01EE0FFF1FEE0FFF1F8E0F9F1FBD
S1130140FC01E05AFF4F84818370832B86B987B109
S113015087B980918600882311F0339A7894C1116D
S1130160359A87B1DF71D82BD7B9379A8091860039
S11301708111369A80B7C295CC0FC07EC82BC0BF00
S1130180DF91CF911F910F91FF90EF9008951F92EF
S11301900F920FB60F9211242F933F934F938F9387
S11301A09F9384B190E0909385008093840045B13F
S11301B02091840030918500942F80E0822B932B32
S11301C09093850080938400369A9F918F914F91EC
S11301D03F912F910F900FBE0F901F901895809113
S11301E086008823B9F4369A349BFECF84B190E01C
S11301F0909385008093840045B1209184003091D0
S11302008500942F80E0822B932B9093850080931C
S11302108400349A8091840090918500089580919F
S11302208600882351F4369A349BFECF85B190E042
S11302309093850080938400349A809184009091F7
S113024085000895CF93DF93CDB7DEB72A970FB615
S1130250F894DEBF0FBECDBF8AB31ABA84B38FEF52
S113026084BB91B381BB1A8281E08C831B8283E0BF
S1130270898380EC98E6A8E7B4E08D839E83AF83FE
S1130280B8871A861986CE0101960E945D01CE01B7
S113029009960E94500199858A8595BB82BBF3CF4C
S11302A0CF93DF93EC010E94EF0099838883DF9161
S11302B0CF9108950E9449000895EF92FF920F9301
S11302C01F93FC01E480F58006811781808163819E
S11302D0428121810E944E001F910F91FF90EF9067
S10902E00895F894FFCF1D
S11302E620A107000090D003000248E8010003247F
S11302F6F4000004127A000005093D000006841E7D
S107030600000700E8
S9030000FC
