S00B00005350492E737265632D
S11300000C942A000C9447000C94DF000C944700D5
S11300100C9447000C9447000C9447000C94470040
S11300200C9447000C9447000C9447000C94470030
S11300300C94F1000C9447000C9447000C94470076
S11300400C9447000C9447000C9447000C94470010
S11300500C94470011241FBECFE5D8E0DEBFCDBF0E
S113006010E0A0E6B0E0E8E1F2E002C005900D92F5
S1130070AA38B107D9F720E0AAE8B0E001C01D9280
S1130080AA38B207E1F70E94FF000C940A010C940D
S11300900000813081F028F08230B9F08330F9F02B
S11300A008958AB3942F909589238ABB8AB34623F3
S11300B0482B4ABB089587B3942F9095892387BB17
S11300C087B34623482B47BB089584B3942F909558
S11300D0892384BB84B34623482B44BB089581B34E
S11300E0942F9095892381BB81B34623482B41BB30
S11300F0089540EF60EB81E00E9449004FEF6FEFFD
S113010080E00E94490040918300509184006091F6
S11301108500709186008091600090916100A091AB
S11301206200B091630084179507A607B70788F0AB
S1130130E5E6F0E021E080819181A281B38184171A
S11301409507A607B70730F02F5F3596273099F744
S113015001C020E01DB83DB1822F90E020918800BD
S1130160322B306520918700322BFC01EE0FFF1FEC
S1130170EE0FFF1F8E0F9F1FFC01E05AFF4F84817B
S1130180282F2370932F922B9DB91EB89EB186956C
S11301908695892B8EB9789448E060E083E00E94CC
S11301A049008BB780688BBF85B78B7F85BF85B7C8
S11301B0886085BF08958FB9779BFECF08951F92FD
S11301C00F920FB60F9211248F938FEF8FB9779BF5
S11301D0FECF8FB18BBB8F910F900FBE0F901F90EE
S11301E018951F920F920FB60F9211248F938FB10F
S11301F08BBB8F910F900FBE0F901F9018950E948C
S113020079004FEF6FEF80E00E94490087E00E9481
S10B0210DB00FCCFF894FFCFE2
S113021800093D000480841E000040420F000520B0
S1130228A107000190D003000648E801000224F465
S10D0238000003E0707200040000EF
S9030000FC
