:100000000C942A000C9447000C94CB000C944700ED
:100010000C9447000C9447000C9447000C94470044
:100020000C9447000C9447000C9447000C94470034
:100030000C94DE000C9447000C9447000C9447008D
:100040000C9447000C9447000C9447000C94470014
:100050000C94470011241FBECFE5D8E0DEBFCDBF12
:1000600010E0A0E6B0E0E6E3F2E002C005900D92F9
:10007000AC38B107D9F720E0ACE8B0E001C01D9280
:10008000AD38B207E1F70E94F2000C9419010C940C
:100090000000813081F028F08230B9F08330F9F02F
:1000A00008958AB3942F909589238ABB8AB34623F7
:1000B000482B4ABB089587B3942F9095892387BB1B
:1000C00087B34623482B47BB089584B3942F90955C
:1000D000892384BB84B34623482B44BB089581B352
:1000E000942F9095892381BB81B34623482B41BB34
:1000F0000895CF92DF92EF92FF92CF93DF936B013F
:100100007C01D42FC22F40EF60E481E00E944900BF
:100110008091680090916900A0916A00B0916B0095
:10012000C816D906EA06FB0688F4EDE6F0E021E001
:1001300080819181A281B381C816D906EA06FB06A7
:1001400030F42F5F3596273099F701C020E01DB8B5
:100150003DB1822F90E03064FC01EE0FFF1FEE0FE7
:10016000FF1F8E0F9F1FFC01E859FF4F8481282F2E
:100170002370932F922BD92BCD2BCDB91EB89EB1C6
:1001800086958695892B8EB9DF91CF91FF90EF9060
:10019000DF90CF9008951F920F920FB60F92112407
:1001A0008F938FEF8FB9779BFECF8FB180938C00A9
:1001B0008F910F900FBE0F901F9018951F920F9266
:1001C0000FB60F9211248F938FB180938C008F9173
:1001D0000F900FBE0F901F9018958FB9779BFECF91
:1001E0008FB108954FEF6FEF80E00E94490082E6E3
:1001F00090E00E940A01C0E6D0E008E017E0088322
:10020000CE010E9414018BBB1883CE010E94140101
:100210008BBBF5CFFC016081718182819381258147
:1002200044810E9479000895FC0180810E94ED00C4
:060230000895F894FFCFD1
:10023600080780841E00040000093D000480841E17
:10024600000040420F000520A107000190D00300E6
:0C0256000648E801000224F40000030048
:00000001FF
