S0100000536C6176654E65772E73726563EF
S11300000C942A000C9434000C9434000C943400A6
S11300100C9434000C9434000C9434000C9434008C
S11300200C9434000C9434000C9434000C9434007C
S11300300C947E000C9434000C9434000C94340022
S11300400C9434000C9434000C9434000C9434005C
S11300500C94340011241FBECFE5D8E0DEBFCDBF21
S11300600E948C000C9497000C940000813081F065
S113007028F08230B9F08330F9F008958AB3942FD0
S1130080909589238ABB8AB34623482B4ABB08959B
S113009087B3942F9095892387BB87B34623482B36
S11300A047BB089584B3942F9095892384BB84B36C
S11300B04623482B44BB089581B3942F90958923FC
S11300C081BB81B34623482B41BB089540E46FEFC5
S11300D081E00E9436004FEF6FEF80E00E9436000F
S11300E080E68DB908958FB9779BFECF8FB18BBB16
S11300F00895779BFECF8FB18BBB08951F920F920B
S11301000FB60F9211248F938FB18BBB8F910F90E9
S11301100FBE0F901F9018950E9466000E947900F0
S113012082E00E94730085E00E947300F7CFF89488
S1050130FFCFFB
S9030000FC
