S0100000536C6176654E65772E73726563EF
S11300000C942A000C943C000C943C000C943C008E
S11300100C943C000C943C000C943C000C943C006C
S11300200C943C000C943C000C943C000C943C005C
S11300300C9491000C943C000C943C000C943C00F7
S11300400C943C000C943C000C943C000C943C003C
S11300500C943C0011241FBECFE5D8E0DEBFCDBF19
S113006020E0A0E6B0E001C01D92A136B207E1F79E
S11300700E94A2000C94AB000C940000813081F02B
S113008028F08230B9F08330F9F008958AB3942FC0
S1130090909589238ABB8AB34623482B4ABB08958B
S11300A087B3942F9095892387BB87B34623482B26
S11300B047BB089584B3942F9095892384BB84B35C
S11300C04623482B44BB089581B3942F90958923EC
S11300D081BB81B34623482B41BB089540E46FEFB5
S11300E081E00E943E00C49A41E06FEF82E00E94EA
S11300F03E0081E085BB4FEF6FEF80E00E943E0041
S113010080EE8DB9789408956F9815BA8FB9779B5E
S1130110FECF1092600081E085BB8FB18BBB6F9ADC
S113012008951F920F920FB60F9211248F9381E0BE
S1130130809360008FB18BBB8F910F900FBE0F9097
S11301401F9018950E946E0085E00E94840082E052
S10D01500E948400F9CFF894FFCF59
S9030000FC
