:1000000029C0000042C0000040C000003EC0000007
:100010003CC000003AC0000038C0000036C00000FC
:1000200034C0000032C00000F1C000002EC000004B
:10003000D9C000003CC1000028C0000026C000005C
:1000400025C0000022C0000020C000001EC000002B
:100050001CC0000011241FBECFE5D8E0DEBFCDBF1D
:1000600010E0A0E6B0E0E6E6F3E002C005900D92F5
:10007000AA38B107D9F710E0AAE8B0E001C01D9294
:10008000A539B107E1F74AD16CC1BACF1F920F92DF
:100090000FB60F9211242F933F934F938F939F93FB
:1000A00084B190E090938B0080938A0045B12091B9
:1000B0008A0030918B00942F80E0822B932B9093B9
:1000C0008B0080938A00369A9F918F914F913F9138
:1000D0002F910F900FBE0F901F901895813089F0CF
:1000E000813028F08230B9F0833041F51EC08AB3E8
:1000F000942F909589238ABB8AB36423682B6ABBAB
:10010000089587B3942F9095892387BB87B3642381
:10011000682B67BB089584B3942F9095892384BB83
:1001200084B36423682B64BB089581B3942F9095A6
:10013000892381BB81B36423682B61BB0895FC01D3
:1001400080815FC0CF92DF92EF92FF92CF93DF93D7
:100150006B017C01C42FD22F81E060EB40EFBEDF4A
:100160008091660090916700A0916800B09169004D
:10017000C816D906EA06FB0688F4EBE6F0E021E0B3
:1001800080819181A281B381C816D906EA06FB0657
:1001900030F42F5F3596273099F701C020E01DB865
:1001A0003DB1822F90E0FC01EE0FFF1FEE0FFF1F0D
:1001B0008E0F9F1FFC01EA59FF4F8481982F937087
:1001C000932BC064DC2BD92BDDB91EB89EB186956C
:1001D0008695892B8EB9DF91CF91FF90EF90DF90BC
:1001E000CF9008951F920F920FB60F9211248F9304
:1001F0008FB1809394008F910F900FBE0F901F903E
:1002000018958FB9779BFECF8FB108951F920F92EB
:100210000FB60F9211242F933F934F935F936F93D9
:100220007F938F939F93AF93BF93EF93FF938091AF
:10023000900090919100A0919200B091930001964E
:10024000A11DB11D8093900090939100A093920006
:10025000B093930040918C0050918D0060E070E06D
:1002600084179507A607B70769F4E0918E00F0910F
:100270008F000995109290001092910010929200B8
:1002800010929300FF91EF91BF91AF919F918F9149
:100290007F916F915F914F913F912F910F900FBE82
:1002A0000F901F9018955D9BFECF8CB908951F92FB
:1002B0000F920FB60F9211242F933F934F935F939A
:1002C0006F937F938F939F93AF93BF93EF93FF931E
:1002D000CF93DF930F92CDB7DEB78CB189838FEFC9
:1002E00090E7A2E081509040A040E1F700C00000FC
:1002F0008981D9DF0F90DF91CF91FF91EF91BF916D
:10030000AF919F918F917F916F915F914F913F91AD
:100310002F910F900FBE0F901F901895CF93DF93E2
:1003200000D0CDB7DEB780E06FEF4FEFD7DE609142
:100330006000709161008091620090916300409133
:10034000640020916500FEDE07E010E1CE01019619
:10035000F6DE8BBB0983CE010196F1DE8BBB1983E0
:06036000F5CFF894FFCF79
:1003660080841E00040000093D000480841E0000F5
:1003760040420F000520A107000190D00300064867
:0A038600E801000224F40000030067
:00000001FF
