:100000000C943E000C945B000C94E7000C945B0095
:100010000C945B000C945B000C945B000C945B00F4
:100020000C945B000C945B000C945B000C945B00E4
:100030000C945B000C945B000C945B000C945B00D4
:100040000C945B000C945B000C945B000C94F90026
:100050000C945B000C945B000C945B000C945B00B4
:100060000C945B000C945B000C945B000C945B00A4
:100070000C945B000C945B000C945B0011241FBE7D
:10008000CFEFD8E0DEBFCDBF11E0A0E0B1E0E8E106
:10009000F2E002C005900D92AA32B107D9F721E033
:1000A000AAE2B1E001C01D92AA32B207E1F70E94B4
:1000B00007010C940A010C940000813081F028F0B3
:1000C0008230B9F08330F9F0089581B1942F909582
:1000D000892381B981B14623482B41B9089584B160
:1000E000942F9095892384B984B14623482B44B931
:1000F000089587B1942F9095892387B987B14623B6
:10010000482B47B908958AB1942F909589238AB9CD
:100110008AB14623482B4AB9089540EF60E481E054
:100120000E945D004FEF6FEF80E00E945D00409104
:100130002301509124016091250170912601809145
:10014000000190910101A0910201B0910301841777
:100150009507A607B70788F0E5E0F1E021E0808188
:100160009181A281B38184179507A607B70730F064
:100170002F5F3596273099F701C020E01DB83DB1BB
:10018000822F90E020912801322B306420912701AA
:10019000322BFC01EE0FFF1FEE0FFF1F8E0F9F1F74
:1001A000FC01E050FF4F8481282F2370932F922B66
:1001B0009DB91EB89EB186958695892B8EB9789487
:1001C00041E061E082E00E945D006F9A08951F9215
:1001D0000F920FB60F9211248F938FEF8FB9779BE9
:1001E000FECF8FB182B98F910F900FBE0F901F90ED
:1001F00018951F920F920FB60F9211248F938FB103
:1002000082B98F910F900FBE0F901F9018950E948A
:080210008D00FFCFF894FFCF31
:1002180000093D000480841E000040420F000520B4
:10022800A107000190D003000648E801000224F469
:0A023800000003C068780404000011
:00000001FF
