:100000000C942A000C9447000C9427050C9447008C
:100010000C9447000C9447000C9447000C94470044
:100020000C9447000C9447000C9447000C94470034
:100030000C943A050C9447000C9447000C9447002C
:100040000C9447000C9447000C9447000C94470014
:100050000C94470011241FBECFE5D8E0DEBFCDBF12
:1000600011E0A0E6B0E0E4EAFDE002C005900D92E8
:10007000A231B107D9F721E0A2E1B1E001C01D92A0
:10008000A531B207E1F70E943C030C94D0060C9412
:1000900000004091610060E0809160000E9490004B
:1000A000109212014091630060E0809162000E9412
:1000B00090001092130108951F93CF93DF93C82FE0
:1000C000D0E0FE01EE5EFE4F1081CE01880F991F39
:1000D000FC01EF59FF4FDC01A05ABF4F60818C91AA
:1000E0000E94F00011110DC0811105C0CE5EDE4FDF
:1000F000188281E011C0CE5EDE4F81E0888380E00F
:100100000BC0811105C0CE5EDE4F188281E004C0B5
:10011000CE5EDE4F81E08883DF91CF911F910895FD
:10012000813081F028F08230B9F08330F9F0089501
:100130008AB3942F909589238ABB8AB34623482B90
:100140004ABB089587B3942F9095892387BB87B3C3
:100150004623482B47BB089584B3942F9095892359
:1001600084BB84B34623482B44BB089581B3942FAA
:100170009095892381BB81B34623482B41BB0895C9
:10018000813081F028F08230B9F08330F9F00895A1
:100190008BB3942F909589238BBB8BB34623482B2D
:1001A0004BBB089588B3942F9095892388BB88B35F
:1001B0004623482B48BB089585B3942F90958923F7
:1001C00085BB85B34623482B45BB089582B3942F46
:1001D0009095892382BB82B34623482B42BB089566
:1001E000813049F028F0823049F0833051F00CC062
:1001F00089B38623089586B38623089583B386231F
:10020000089580B38623089580E00895CF93DF9307
:10021000C82FD0E0FE01EE0FFF1FEE0FFF1FEE0F05
:10022000FF1FEC59FF4F458160E084810E94C000B0
:1002300087EE93E00197F1F700C00000CC0FDD1FBF
:10024000CC0FDD1FCC0FDD1FCC59DF4F4D816FEF81
:100250008C810E94C00087EB9BE00197F1F700C002
:100260000000DF91CF9108950F931F93CF93DF93F9
:10027000082F162FC62FD0E0CC0FDD1FCC0FDD1FAF
:10028000CC0FDD1FCC59DF4F498160E088810E948F
:10029000C0004B8160E08A810E94C000602F607FB7
:1002A0004F818E810E94C000812F0E940601602F25
:1002B0006295607F4F818E810E94C000812F0E94D5
:1002C0000601DF91CF911F910F9108954F925F9298
:1002D0006F927F928F929F92AF92BF92CF92DF9256
:1002E000EF92FF920F931F93CF93DF930F2EF5E6BC
:1002F000CF2EF0E0DF2EF02D0F2EF4E6EF2EF0E003
:10030000FF2EF02DF60140816FEFF70180810E94F2
:10031000900007E610E0C6E6D0E0F80140816FEFFC
:1003200088810E9490000F2EF9E68F2EF0E09F2E1C
:10033000F02D0F2EF8E6AF2EF0E0BF2EF02DF401D9
:1003400040816FEFF50180810E9490000F2EFBE647
:100350006F2EF0E07F2EF02D0F2EFAE64F2EF0E0FC
:100360005F2EF02DF30140816FEFF20180810E943A
:100370009000F40140816FEFF50180810E94C00080
:10038000F601408160E0F70180810E94C000F80121
:10039000408160E088810E94C000F301408160E0FC
:1003A000F20180810E94C00060E083E30E9434017A
:1003B00060E082E30E94340160E088E20E94340140
:1003C00060E08CE00E943401DF91CF911F910F918A
:1003D000FF90EF90DF90CF90BF90AF909F908F9065
:1003E0007F906F905F904F9008950F931F93CF93DE
:1003F000DF93082F162FC62FD0E0CC0FDD1FCC0FB8
:10040000DD1FCC0FDD1FCC59DF4F49816FEF888195
:100410000E94C0004B8160E08A810E94C000602F72
:10042000607F4F818E810E94C000812F0E94060153
:10043000602F6295607F4F818E810E94C000812F66
:100440000E940601DF91CF911F910F910895813095
:1004500049F028F0823049F0833051F00CC080E838
:10046000860F0AC080EC860F07C080E8860F04C0A4
:1004700080E8860F01C080E8642F0E94340108954F
:10048000682F81E00E94340108951F93CF93DF937A
:10049000EC01162F8881882339F02196612F0E9464
:1004A000F50189918111FACFDF91CF911F910895C4
:1004B0001F93CF93DF93EC01862F642F122F422FCF
:1004C0000E942702612FCE010E944502DF91CF9149
:1004D0001F910895DF92EF92FF920F931F93CF9396
:1004E000DF93CDB7DEB760970FB6F894DEBF0FBECF
:1004F000CDBFD62E811104C080E30E94F50137C024
:1005000090E05DEC31E0390FE1E0F0E0EC0FFD1F31
:10051000E90FF11D859F912D11249695969596953D
:10052000292F220F422F440F440F240F821B805D7E
:100530008083892F992311F0932FE4CF3323B9F0CF
:10054000E32EF12C01E010E00C0F1D1F0E0D1F1DFE
:10055000EC0EFD1E3150E31AF108015011096D2D0A
:10056000F80180810E94F5010E151F05B1F7609614
:100570000FB6F894DEBF0FBECDBFDF91CF911F91B4
:100580000F91FF90EF90DF900895CF92DF92EF925E
:10059000FF92CF93DF936B017C01C42F0E94B305C0
:1005A000D62F6C2F8D2F0E946A026C2F8EE20E9434
:1005B000F5016D2F70E080E090E00E94E1059B0165
:1005C000AC01C701B6010E944E0520E030E048ECC6
:1005D00052E40E946D060E94B305862F6C2F0E9484
:1005E0006A02DF91CF91FF90EF90DF90CF90089556
:1005F0000F931F93CF93DF93CDE6D0E003E710E096
:10060000FE01319748816FEF80810E949000229611
:10061000C017D107A9F7DF91CF911F910F910895CE
:10062000E82FF0E0EE0FFF1FE459FF4F41816FEF1D
:1006300080810E94C0000895E82FF0E0EE0FFF1FB8
:10064000E459FF4F418160E080810E94C00008951D
:10065000CF93DF93C82FD0E0CC0FDD1FC459DF4FFD
:10066000698188810E94F0009981982381E009F4D2
:1006700080E0DF91CF910895CF93DF93CDB7DEB7C0
:1006800028970FB6F894DEBF0FBECDBF0E94490079
:100690000E94F8020E94660180E00E94400260E031
:1006A00082E790E00E94450280E00E94100310E083
:1006B0006894662463F80F2EF7E0BF2EF02D0F2EFE
:1006C000F6E07F2EF02D0F2EF0E8CF2EF4E8DF2E8F
:1006D000FEE1EF2EF12CF02D6894AA24A2F8689484
:1006E000992491F80F2EF3E08F2EF02D11111FC0D9
:1006F00080E00E945C00811109C00E94400260E01D
:100700008CE790E00E94450211E039C181E00E942F
:100710005C00811134C10E942803813021F480E003
:100720000E941C032CC180E00E94100328C11130DC
:1007300009F580E00E945C00811118C00E9440020F
:1007400060E087E890E00E94450220E040E061E040
:1007500080E990E00E94580220E04B2D61E087E99B
:1007600090E00E94580200E4192D09C181E00E9426
:100770005C0005C11230B1F580E00E945C0081117F
:1007800018C00E94400260E080EA90E00E944502AA
:1007900020E040E061E089EA90E00E94580220E019
:1007A0004B2D61E087E990E00E94580200E4182D8B
:1007B000E6C081E00E945C008111E1C00F5F40E073
:1007C00065E081E00E94270260E0802F0E94F50131
:1007D00040E06FE081E00E94270260E080E00E943C
:1007E000F501CDC0133009F04CC0C982DA82EB822A
:1007F000FC82AD821E824FEF6FEF80E00E9490007E
:10080000CE0101960E94C60480E00E945C00811126
:1008100018C00E94400260E08FEA90E00E9445020A
:1008200020E040E061E080E990E00E94580220E092
:100830004B2D61E087E990E00E94580200E41A2DF8
:100840009EC081E00E945C00811199C00F5F9F8271
:10085000CE0107960E94D00488878BBB40E065E0FC
:1008600081E00E94270260E0802F0E94F50140E0B5
:100870006FE081E00E94270260E080E00E94F501C5
:100880007EC0143071F580E00E945C00811110C0C0
:100890000E94400260E089EB90E00E94450220E067
:1008A00040E061E082EC90E00E94580215E067C0F1
:1008B00081E00E945C00811162C00F5F40E065E052
:1008C00081E00E94270260E0802F0E94F50140E055
:1008D0006FE081E00E94270260E080E00E94F50165
:1008E0004EC0153009F580E00E945C00811110C0F7
:1008F0000E94400260E089EC90E00E94450220E006
:1009000040E061E081ED90E00E945802172DEECEAC
:1009100040E065E081E00E94270240E060E070E096
:10092000CB010E94C5022BC01630D1F480E00E949A
:100930005C00811109C00E94400260E087ED90E0F8
:100940000E9445021B2DD2CE40E065E081E00E946E
:10095000270240E060E070E0CB010E94C5020FC0BA
:10096000173069F480E00E945C00811108C00E9489
:10097000400260E081EE90E00E944502162D87E87B
:1009800093E10197F1F700C00000B0CEFC01608157
:10099000718182819381258144810E94D5040895CB
:1009A000FC0180810E9449050895CF92DF92EF9269
:1009B000FF92CF93DF936B017C01D42FC22F40EFC6
:1009C00060EB81E00E9490008091EF009091F00038
:1009D000A091F100B091F200C816D906EA06FB0614
:1009E00088F4E4EFF0E021E080819181A281B3817D
:1009F000C816D906EA06FB0630F42F5F3596273075
:100A000099F701C020E01DB83DB1822F90E030651C
:100A1000FC01EE0FFF1FEE0FFF1F8E0F9F1FFC014B
:100A2000E151FF4F8481282F2370932F922BD92BD4
:100A3000CD2BCDB91EB89EB186958695892B8EB9E2
:100A4000DF91CF91FF90EF90DF90CF9008951F92AC
:100A50000F920FB60F9211248F938FEF8FB9779B60
:100A6000FECF8FB1809314018F910F900FBE0F9026
:100A70001F9018951F920F920FB60F9211248F930B
:100A80008FB1809314018F910F900FBE0F901F9024
:100A900018958FB9779BFECF8FB108955058BB271B
:100AA000AA270ED0E0C0D1D030F0D6D020F031F45B
:100AB0009F3F11F41EF4C6C00EF4E095E7FBBCC0E6
:100AC000E92FE2D080F3BA1762077307840795070E
:100AD00018F071F49EF5FAC00EF4E0950B2EBA2FC3
:100AE000A02D0B01B90190010C01CA01A001112434
:100AF000FF27591B99F0593F50F4503E68F11A16E0
:100B0000F040A22F232F342F4427585FF3CF469570
:100B100037952795A795F0405395C9F77EF41F1692
:100B2000BA0B620B730B840BBAF09150A1F0FF0F5C
:100B3000BB1F661F771F881FC2F70EC0BA0F621F48
:100B4000731F841F48F4879577956795B795F79538
:100B50009E3F08F0B3CF9395880F08F09927EE0FCA
:100B600097958795089598D088F09F5790F0B92F62
:100B70009927B751A0F0D1F0660F771F881F991FF2
:100B80001AF0BA95C9F712C0B13081F09FD0B1E028
:100B900008959CC0672F782F8827B85F39F0B93F38
:100BA000CCF3869577956795B395D9F73EF49095F4
:100BB0008095709561957F4F8F4F9F4F0895E89472
:100BC00009C097FB3EF490958095709561957F4F95
:100BD0008F4F9F4F9923A9F0F92F96E9BB27939543
:100BE000F695879577956795B795F111F8CFFAF453
:100BF000BB0F11F460FF1BC06F5F7F4F8F4F9F4F84
:100C000016C0882311F096E911C0772321F09EE8E1
:100C1000872F762F05C0662371F096E8862F70E047
:100C200060E02AF09A95660F771F881FDAF7880F21
:100C30009695879597F9089597F99F6780E870E0F2
:100C400060E008959FEF80EC089500240A94161642
:100C5000170618060906089500240A9412161306AA
:100C6000140605060895092E0394000C11F4882338
:100C700052F0BB0F40F4BF2B11F460FF04C06F5F54
:100C80007F4F8F4F9F4F089557FD9058440F551F2A
:100C900059F05F3F71F04795880F97FB991F61F0FE
:100CA0009F3F79F087950895121613061406551F75
:100CB000F2CF4695F1DF08C0161617061806991FE1
:100CC000F1CF86957105610508940895E894BB27D6
:100CD00066277727CB0197F908950BD0C4CFB5DFEE
:100CE00028F0BADF18F0952309F0A6CFABCF112476
:100CF000EECFCADFA0F3959FD1F3950F50E0551FBB
:100D0000629FF001729FBB27F00DB11D639FAA2760
:100D1000F00DB11DAA1F649F6627B00DA11D661FAF
:100D2000829F2227B00DA11D621F739FB00DA11DD0
:100D3000621F839FA00D611D221F749F3327A00D8A
:100D4000611D231F849F600D211D822F762F6A2F26
:100D500011249F5750408AF0E1F088234AF0EE0FAB
:100D6000FF1FBB1F661F771F881F91505040A9F7B8
:100D70009E3F510570F060CFAACF5F3FECF3983EE5
:100D8000DCF3869577956795B795F795E7959F5F1F
:100D9000C1F7FE2B880F911D9695879597F90895B9
:040DA000F894FFCFF5
:100DA4000304030201020104010800F003200340CC
:100DB40003804750494F20544553540054696D658E
:100DC400722054657374004932432054657374006F
:100DD40053656E643A2000526563656976653A002E
:100DE40053504920546573740053656E643A00553A
:100DF4004152542054657374004144432054657334
:100E0400740076616C313A20004143205465737458
:100E14000076616C313A0057494649205465737431
:100E2400005741544348444F4720546573740000AD
:100E3400093D000480841E000040420F000520A1EB
:100E440007000190D003000648E801000224F400E2
:020E5400000399
:00000001FF
