:100000000C942A000C9447000C9447000C94470071
:100010000C9447000C9447000C9447000C94470044
:100020000C9447000C9447000C9447000C94470034
:100030000C9447000C94F5000C9447000C94470076
:100040000C9447000C9447000C9447000C94470014
:100050000C94470011241FBECFE5D8E0DEBFCDBF12
:1000600010E0A0E6B0E0E6EDF2E002C005900D92EF
:10007000AA36B107D9F710E0AAE6B0E001C01D9298
:10008000AB36B107E1F70E9452000C9469010C9461
:1000900000000E94600008950E94ED0008950E94F3
:1000A000F10008950E9449000E944F00863721F414
:1000B00084E50E944C00F8CF86E40E944C00F4CF07
:1000C000CF92DF92EF92FF9280916800882369F1CE
:1000D0008091600090916100A0916200B0916300F6
:1000E000AC01BD0140585B47614E7F4F6A017B0107
:1000F000CC0CDD1CEE1CFF1CCC0CDD1CEE1CFF1C14
:10010000880F991FAA1FBB1F880F991FAA1FBB1F0B
:100110009C01AD01220F331F441F551FC701B601BB
:100120000E9447012150304034C08091600090917E
:100130006100A0916200B0916300AC01BD01405C20
:100140005D4B604F7F4F6A017B01CC0CDD1CEE1CC8
:10015000FF1CCC0CDD1CEE1CFF1CCC0CDD1CEE1CB3
:10016000FF1C880F991FAA1FBB1F880F991FAA1F6A
:10017000BB1F9C01AD01220F331F441F551F220FCF
:10018000331F441F551FC701B6010E94470121506C
:10019000304010BC29B930BD0E94360180E880BDD6
:1001A00090B580916400892B90916500892B909186
:1001B0006600892B80BD9BB180916800892B8BB92B
:1001C00080916700882321F0F8940E94450178947B
:1001D000FF90EF90DF90CF9008955D9BFECF8CB99C
:1001E00008955F9BFECF8CB108951F920F920FB6BA
:1001F0000F9211242F933F934F935F936F937F93AD
:100200008F939F93AF93BF93EF93FF93CF93DF931E
:100210000F92CDB7DEB78CB189838FEF90E7A2E064
:1002200081509040A040E1F700C0000089810E9409
:10023000ED000F90DF91CF91FF91EF91BF91AF91C2
:100240009F918F917F916F915F914F913F912F91EE
:100250000F900FBE0F901F9018958AB11AB808958D
:100260008AB11AB808958AB11AB808958AB1886116
:100270008AB90895549A0895539A08958AB11AB87C
:1002800008958AB1806E8AB90895579A0895A1E2B7
:100290001A2EAA1BBB1BFD010DC0AA1FBB1FEE1F00
:1002A000FF1FA217B307E407F50720F0A21BB30B4B
:1002B000E40BF50B661F771F881F991F1A9469F7C7
:1002C00060957095809590959B01AC01BD01CF0123
:0602D0000895F894FFCF31
:0A02D6008025000006000001000072
:00000001FF
