:100000000C942A000C9447000C9447000C94470071
:100010000C9447000C9447000C9447000C94470044
:100020000C9447000C9447000C9447000C94470034
:100030000C9447000C9447000C9447000C94470024
:100040000C9447000C9447000C9447000C94470014
:100050000C94470011241FBECFE5D8E0DEBFCDBF12
:1000600010E0A0E6B0E0E8E7F2E002C005900D92F3
:10007000A036B107D9F710E0A0E6B0E001C01D92AC
:10008000A136B107E1F70E9422010C943A010C94C9
:10009000000082B712BE8EE38CBF8AE083BF81E08E
:1000A0006FEF4FEF0E94A900089582B70895FF9265
:1000B0000F931F93CF93DF938C010E94490010167A
:1000C0001106C4F4C0E0D0E00F2EF3E8FF2EF02DAF
:1000D000F2BE08B600FC08C062B781E04FEF0E9494
:1000E000DA0008B600FEF8CF81E088BF2196C0177D
:1000F000D10771F713BEDF91CF911F910F91FF9040
:100100000895FF920F931F93CF93DF938C010E946A
:10011000490010161106B4F4C0E0D0E0FF24689442
:10012000F1F812BE08B601FC08C062B781E04FEFDB
:100130000E94DA0008B601FEF8CFF8BE2196C0177B
:10014000D10779F713BEDF91CF911F910F91FF90E7
:100150000895813089F0813028F08230B9F0833001
:1001600041F51EC08AB3942F909589238ABB8AB328
:100170006423682B6ABB089587B3942F90958923D5
:1001800087BB87B36423682B67BB089584B3942F20
:100190009095892384BB84B36423682B64BB089542
:1001A00081B3942F9095892381BB81B36423682BFD
:1001B00061BB0895813089F0813028F08230B9F038
:1001C000833041F51EC08BB3942F909589238BBB50
:1001D0008BB36423682B6BBB089588B3942F9095E1
:1001E000892388BB88B36423682B68BB089585B3D3
:1001F000942F9095892385BB85B36423682B65BBB9
:10020000089582B3942F9095892382BB82B364238F
:10021000682B62BB0895813051F0813028F0823024
:1002200049F0833069F409C089B38623089586B301
:100230008623089583B38623089580B38623089583
:1002400080E0089583E06FEF41E00E94A90083E021
:1002500061E041E00E94DA0084E690E00E948100C3
:1002600083E060E041E00E94DA0084E690E00E94D2
:080270008100EDCFF894FFCFEF
:00000001FF
