S01C000054696D6572436F756E7465723028382D626974292E7372656302
S11300000C942A000C9447000C9447000C9447006D
S11300100C9447000C9447000C9447000C94470040
S11300200C9447000C9447000C94CE000C94C4002C
S11300300C9447000C9447000C9447000C94470020
S11300400C9447000C9447000C9447000C94470010
S11300500C94470011241FBECFE5D8E0DEBFCDBF0E
S113006010E0A0E6B0E0EAEDF2E002C005900D92E7
S1130070AA37B107D9F710E0AAE7B0E001C01D9292
S1130080AA37B107E1F70E9451010C946B010C945B
S1130090000063B78091600090E0AC014170507043
S11300A09A01002436952795079436952795079449
S11300B0322F202D462F422B827090709C01359553
S11300C02795C901880F991F880F991F880F991FB9
S11300D0842B83BF089582B708959C0140916100E9
S11300E0509162004F3F510569F060F0E6E6F0E0A0
S11300F081E090E0BC01408151814F3F510509F0FE
S113010098F402C060E070E0A3B7CB01880F991F98
S1130110880F991F860F971FFC01EF59FF4F8481A9
S113012087708A2B83BF05C001963596853091056B
S113013009F721153105E9F080E090E05091600065
S1130140E42FE15072E0419561E0552331F442BF60
S113015008B600FEFDCF68BF08C0523031F412BEAD
S1130160ECBF08B601FEFDCF78BF01968217930756
S113017061F7089588B78170089588B782700895EB
S113018082BF08958CBF08951F920F920FB60F92ED
S113019011240F900FBE0F901F9018951F920F926D
S11301A00FB60F9211240F900FBE0F901F90189549
S11301B0813089F0813028F08230B9F0833041F504
S11301C01EC08AB3942F909589238ABB8AB3642373
S11301D0682B6ABB089587B3942F9095892387BBB6
S11301E087B36423682B67BB089584B3942F9095D9
S11301F0892384BB84B36423682B64BB089581B3CF
S1130200942F9095892381BB81B36423682B61BBB0
S11302100895813089F0813028F08230B9F083303C
S113022041F51EC08BB3942F909589238BBB8BB360
S11302306423682B6BBB089588B3942F909589230E
S113024088BB88B36423682B68BB089585B3942F57
S11302509095892385BB85B36423682B65BB08957A
S113026082B3942F9095892382BB82B36423682B35
S113027062BB0895813051F0813028F0823049F01A
S1130280833069F409C089B38623089586B386232D
S1130290089583B38623089580B38623089580E068
S11302A0089582E061E041E00E94D8000E94490084
S11302B082E061E041E00E94090184E690E00E944E
S11302C06D0082E060E041E00E94090184E690E074
S10D02D00E946D00EDCFF894FFCFFB
S11302DA00401F000001E8030000027D0000000343
S10D02EA1F000000040700000005D7
S9030000FC
