:100000000C942A000C9447000C9447000C94470071
:100010000C9447000C9447000C9447000C94470044
:100020000C9447000C9447000C9447000C94470034
:100030000C9447000C9447000C9447000C94470024
:100040000C9447000C9447000C9447000C94470014
:100050000C94470011241FBECFE5D8E0DEBFCDBF12
:1000600010E0A0E6B0E0E6EFF4E002C005900D92EB
:10007000AA37B107D9F710E0AAE7B0E001C01D9296
:10008000AA37B107E1F70E9481010C9479020C9420
:10009000000063B78091600090E0AC014170507047
:1000A0009A0100243695279507943695279507944D
:1000B000322F202D462F422B827090709C01359557
:1000C0002795C901880F991F880F991F880F991FBD
:1000D000842B83BF83B783BF089582B7089523B766
:1000E000226023BF9C01220F331F220F331F2115D3
:1000F000310551F080E090E012BE42B74B3FE8F38B
:10010000019682179307C1F70895CF92DF92EF927D
:10011000FF920F931F93CF93DF937C010E944900BE
:100120006091610070916200809163009091640021
:100130002FE632E143E85AE30E94EE010E94990162
:10014000462F572F682F792F4F3F510561057105B5
:10015000F1F0E8F006E610E0C1E0D0E06E01F80151
:1001600060817181828193812FE632E143E85AE315
:100170000E94EE010E949901462F572F682F792F78
:100180004F3F51056105710509F098F402C0CC2478
:10019000DD2423B7C601880F991F880F991F8C0D86
:1001A0009D1DFC01EF59FF4F84818770822B83BF17
:1001B00006C021960B5F1F4FC530D10579F6E114BB
:1001C000F104E9F080E090E020916000F42FF1501C
:1001D000E2E0419531E0222331F442BF08B600FE4F
:1001E000FDCF38BF08C0223031F412BEFCBF08B6C4
:1001F00001FEFDCFE8BF01968E159F0561F7DF91E7
:10020000CF911F910F91FF90EF90DF90CF900895C5
:10021000813089F0813028F08230B9F0833041F5A7
:100220001EC08AB3942F909589238ABB8AB3642316
:10023000682B6ABB089587B3942F9095892387BB59
:1002400087B36423682B67BB089584B3942F90957C
:10025000892384BB84B36423682B64BB089581B372
:10026000942F9095892381BB81B36423682B61BB54
:100270000895813089F0813028F08230B9F08330E0
:1002800041F51EC08BB3942F909589238BBB8BB304
:100290006423682B6BBB089588B3942F90958923B2
:1002A00088BB88B36423682B68BB089585B3942FFB
:1002B0009095892385BB85B36423682B65BB08951E
:1002C00082B3942F9095892382BB82B36423682BD9
:1002D00062BB0895813051F0813028F0823049F0BE
:1002E000833069F409C089B38623089586B38623D1
:1002F000089583B38623089580B38623089580E00C
:10030000089582E061E041E00E94080182E061E03E
:1003100041E00E9439018AE090E00E94850082E07D
:1003200060E041E00E9439018AE090E00E9485008F
:10033000EDCF33D088F09F5790F0B92F9927B75160
:10034000A0F0D1F0660F771F881F991F1AF0BA9599
:10035000C9F712C0B13081F03AD0B1E0089537C08A
:10036000672F782F8827B85F39F0B93FCCF386958F
:1003700077956795B395D9F73EF4909580957095EC
:1003800061957F4F8F4F9F4F089557FD9058440FB1
:10039000551F59F05F3F71F04795880F97FB991FE4
:1003A00061F09F3F79F087950895121613061406A1
:1003B000551FF2CF4695F1DF08C01616170618062E
:1003C000991FF1CF86957105610508940895E89409
:1003D000BB2766277727CB0197F908950BD078C004
:1003E00069D028F06ED018F0952309F05AC05FC08C
:1003F0001124EECFCADFA0F3959FD1F3950F50E003
:10040000551F629FF001729FBB27F00DB11D639FC6
:10041000AA27F00DB11DAA1F649F6627B00DA11D6C
:10042000661F829F2227B00DA11D621F739FB00D12
:10043000A11D621F839FA00D611D221F749F332782
:10044000A00D611D231F849F600D211D822F762F1B
:100450006A2F11249F5750408AF0E1F088234AF018
:10046000EE0FFF1FBB1F661F771F881F9150504064
:10047000A9F79E3F510570F014C0AACF5F3FECF37F
:10048000983EDCF3869577956795B795F795E79550
:100490009F5FC1F7FE2B880F911D9695879597F961
:1004A000089597F99F6780E870E060E008959FEFF6
:1004B00080EC089500240A941616170618060906FB
:1004C000089500240A9412161306140605060895CA
:1004D000092E0394000C11F4882352F0BB0F40F452
:1004E000BF2B11F460FF04C06F5F7F4F8F4F9F4F92
:0604F0000895F894FFCF0F
:1004F600000024F44A0100247449020024F447034E
:0A0506000024F446040020F445052B
:00000001FF
