:100000000C942A000C9447000C9447000C94470071
:100010000C9447000C9447000C9447000C94470044
:100020000C9447000C9447000C94F5000C94EB00E2
:100030000C9447000C9447000C9447000C94470024
:100040000C9447000C9447000C9447000C94470014
:100050000C94470011241FBECFE5D8E0DEBFCDBF12
:1000600010E0A0E6B0E0EEE0F4E002C005900D92F2
:10007000AA37B107D9F710E0AAE7B0E001C01D9296
:10008000A438B107E1F70E94DD010C9405020C943D
:100090000000789413BE63B78091600090E0AC01DB
:1000A000417050709A010024369527950794369533
:1000B00027950794322F202D462F422B8270907067
:1000C0009C0135952795C901880F991F880F991FA5
:1000D000880F991F842B83BF8091610090916200EB
:1000E00090937B0080937A008F3F910589F080F098
:1000F000E6E6F0E081E090E0AC01208131812F3F25
:10010000310509F0B8F430937B0020937A0002C0E7
:1001100040E050E093B7FA01EE0FFF1FEE0FFF1F14
:100120004E0F5F1FFA01EF59FF4F84818770892BB3
:1001300083BF08950196359685309105E9F6309391
:100140007B0020937A00089519BE20917A002150F7
:100150002CBF29B7226029BF90937D0080937C003B
:1001600070937F0060937E00089582B70895009792
:1001700009F120E030E040916000EAE7F0E0B2E011
:10018000A1E0442341F45081519552BF08B600FECE
:10019000FDCFA8BF0AC0423041F412BE5081515079
:1001A0005CBF08B601FEFDCFB8BF2F5F3F4F2817D9
:1001B000390739F7FB010995089588B781700895CB
:1001C00088B78270089582BF089581508CBF0895CA
:1001D00083B783BF08951F920F920FB60F92112419
:1001E0000F900FBE0F901F9018951F920F920FB691
:1001F0000F9211242F933F934F935F936F937F93AD
:100200008F939F93AF93BF93EF93FF938091800061
:1002100090918100A0918200B09183000196A11D70
:10022000B11D8093800090938100A0938200B093D1
:10023000830040917C0050917D0060E070E0841765
:100240009507A607B70769F4E0917E00F0917F005B
:1002500009951092800010928100109282001092F5
:100260008300FF91EF91BF91AF919F918F917F910B
:100270006F915F914F913F912F910F900FBE0F9013
:100280001F901895813089F0813028F08230B9F0C4
:10029000833041F51EC08AB3942F909589238ABB81
:1002A0008AB36423682B6ABB089587B3942F909513
:1002B000892387BB87B36423682B67BB089584B306
:1002C000942F9095892384BB84B36423682B64BBEB
:1002D000089581B3942F9095892381BB81B36423C2
:1002E000682B61BB0895813089F0813028F082301D
:1002F000B9F0833041F51EC08BB3942F90958923BC
:100300008BBB8BB36423682B6BBB089588B3942F8E
:100310009095892388BB88B36423682B68BB0895B4
:1003200085B3942F9095892385BB85B36423682B6F
:1003300065BB089582B3942F9095892382BB82B3C5
:100340006423682B62BB0895813051F0813028F01E
:10035000823049F0833069F409C089B38623089557
:1003600086B38623089583B38623089580B38623B6
:10037000089580E008950E9449000895FC0162817B
:100380007381808191810E94B7000895FC01628190
:100390007381808191810E94A40008950E94E800E9
:1003A000089582E060E041E00E947301089582E0D8
:1003B00061E041E00E9473010895CF93DF9300D084
:1003C00000D0CDB7DEB782E061E041E00E9442019B
:1003D0008AE090E09A838983CE0101960E94BB0156
:1003E00007ED11E00F2EF1EDEF2EF1E0FF2EF02DD5
:1003F0001C830B83CE0101960E94BE01FC82EB821E
:0E040000CE0101960E94BE01F3CFF894FFCF0B
:10040E0002401F000001E8030000027D000000030F
:0A041E001F000000040700000005A5
:00000001FF
